:020000040800F2
:10000000D80B0020CD0100084D330008612E0008F8
:10001000493300089D0B0008493C0008000000001F
:100020000000000000000000000000003D3C00084F
:10003000B90D00080000000051330008413C0008E1
:10004000E7010008E7010008E7010008E7010008F0
:10005000E7010008E7010008E7010008E7010008E0
:10006000E7010008E7010008E7010008E7010008D0
:10007000E7010008E7010008E7010008E7010008C0
:10008000E7010008E7010008E7010008E7010008B0
:10009000E7010008E7010008E7010008E7010008A0
:1000A000E7010008E7010008E7010008E701000890
:1000B000E7010008E7010008E7010008E701000880
:1000C000E7010008E7010008E7010008E701000870
:1000D000E7010008E7010008E7010008E701000860
:1000E000E7010008E7010008E701000800F002F856
:1000F00000F05DF814A696E8000CB244B344DA456B
:1001000001D100F054F8BAE80F000FA696E83000CD
:10011000A5EB040504EB0607AAEB0704A7F101070A
:100120004FEA15154FEA3414A4F10104AC4201D38F
:1001300000F03DF813F0010F18BFFB1A43F0010364
:1001400000F001F8DBE7184754670000746700000F
:10015000103A24BF78C878C1FAD8520724BF30C8F3
:1001600030C144BF04680C60704700007047000055
:100170000023002400250026103A28BF78C1FBD8B0
:10018000520728BF30C148BF0B607047662905F091
:10019000BE80002070471FB500F072FB04000020F5
:1001A000002104F071FCE0601FBD10B510BD00F02F
:1001B00067FC1146FFF7EFFF03F060FE00F085FCDF
:1001C00003B4FFF7F2FF03BC00F088FC0948804746
:1001D00009480047FEE7FEE7FEE7FEE7FEE7FEE729
:1001E000FEE7FEE7FEE7FEE704480549054A064B41
:1001F00070470000453C0008ED000008D8050020CD
:10020000D80B0020D8070020D80700200FB41CB559
:10021000074B06AA7B4469460090059800F017FB3F
:100220000020694600F026FB1CBC5DF814FB0000B2
:100230005D0600002DE9F0474FF0000A89460446AC
:10024000C0F820A02046E1688847002876D02528FD
:1002500006D0D4E901219047206A401C2062F1E7D2
:10026000E168204600258847C4F81CA00646002700
:10027000C4F818A02A2E09D0304604F0FDFB38B38C
:1002800004EB8708303EC8F8186019E059F8041BE1
:10029000204604EB87029161E1688847012F0646FA
:1002A00018D1E069002820DA25F020051DE0D8F8F3
:1002B000180000EB800006EB40003038C8F818004A
:1002C0002046E1688847064604F0D6FB0028EED1B8
:1002D000012F0AD02E2E08D12046E16888477F1CC6
:1002E0000646022F45F02005C4DBA069002803DA8A
:1002F000404245F00105A061E80701D025F0100556
:10030000B6B1A6F14100192802D8203645F400659F
:100310004A463146204625604D46FFF737FF58B123
:10032000012806D0ED1D25F0070000F1080989E736
:1003300004E005F1040985E730468AE7206ABDE854
:10034000F08702F0FF0343EA032242EA024200F090
:1003500002B84FF0000200B5134694469646203985
:1003600022BFA0E80C50A0E80C50B1F12001BFF46E
:10037000F7AF090728BFA0E80C5048BF0CC05DF8D4
:1003800004EB890028BF40F8042B08BF704748BF22
:1003900020F8022B11F0804F18BF00F8012B704796
:1003A0004FF0013C50F8042B51F8043B9A4221D104
:1003B000A2EB0C03934313EACC1317D150F8042B90
:1003C00051F8043B9A4215D1A2EB0C03934313EA74
:1003D000CC130BD150F8042B51F8043B9A4209D1AD
:1003E000A2EB0C03934313EACC13DBD04FF00000D5
:1003F000704700BFD01A01BAB1FA81F101F01801BB
:1004000022FA01F0CB40DBB2C0B2C01AC1F1200128
:100410002CFA01F3D11A914311EAC311E6D17047C6
:100420007047704770472DE9FF4F0C461E464FF04E
:10043000FF378BB0D2E90001DDF860800A908A4670
:10044000C1F30A5505B93D46002108464FF00000AA
:10045000BAF1000F00F4400005DA00EB80004FF421
:10046000400101EA50004FEA9059B9F1010F00DD57
:10047000B9460A9850EA4A000ED044F61050A5F248
:10048000FF3545432F14B8F1000F1ED07542291EC9
:100490001EDDC9F100021CE0B8F1010F4FF00000B1
:1004A00001D0302103E0F24305E02154401CB0426A
:1004B000FBDB30460022002121540B99C1F8088053
:1004C000C1E900200FB0BDE8F08FBD1B6D1CDEE759
:1004D0004A4600DA694206A800F05CFA06AB93E8E7
:1004E000070003AB83E8070050460A9903F0E8FED3
:1004F0008DE80700A0F500501F3800900398002DEC
:100500000ADD42F21F014A460844002303A9039072
:10051000684604F051F909E0A0F500504A461F383A
:10052000002303A90390684604F05BF98DE80700F7
:100530000004000C03D04FF0FF30410800E01046EB
:10054000B8F1000F03D00022009215461EE0751E80
:1005500005D400F099F9303262556D1EF9D5B346D5
:100560000122084302D000227F1C04E020783028BA
:1005700001D100227F1E002A099784D01DE0112D91
:1005800007DA00F081F9303262556D1C50EA010241
:10059000F5D1084302D00098C8B10EE00021681ED2
:1005A00005E0235C625C63542254401E491C814276
:1005B000F7DBAB46A81B401E0990002004F80B0097
:1005C0000B98099AC0F80880C0E9002B7AE7112639
:1005D0004FF0000857E72DE9F04F88460446D21D3A
:1005E00022F0070191B0D1E90001CDE90A0104F040
:1005F0002FFA02460B98C00F01D02D2007E020688B
:10060000810701D52B2002E0202101EAC000032A46
:10061000099001D0072A05DB03464146204600F039
:1006200079F90BE12078800601D5E06900E0062029
:10063000B8F1650F814606D0B8F1660F18D0B8F151
:10064000670F70D131E00020B9F1110F009001DB8C
:10065000112301E009F101030AAA01A90CA8FFF77F
:10066000E2FEDDE90C70002609F10105834647E052
:1006700001204B4600904FF000470AAA01A90CA8A0
:10068000FFF7D1FEDDE90DB00C995D46002610B9EB
:1006900009F101000D18B9EB050003D4C0F1FF36D4
:1006A00009F10105A5EB09002BE0B9F1010F01DA11
:1006B0004FF001090020B9F1110F0090484601DD0B
:1006C000112300E003460AAA01A90CA8FFF7ABFE1C
:1006D000DDE90C704D4600268346207800070AD4D9
:1006E000AB4500DA5D4601A8012D04DD411911F882
:1006F000011C302907D04F4502DA17F1040F04DA44
:10070000012082460FE06D1EEEE7002F02DCED1B9C
:100710003E4403E0781CA84200DD7D1CB81B00F1BC
:10072000010A4FF000472078000703D4AA4501DBF7
:100730004FF0FF3A0021B7F1004F0DF143088DF85B
:10074000431024D002202B23002F01DA7F422D23D7
:100750000A21021EA0F1010000DC5FB197FBF1FC51
:1007600097FBF1F201FB1C7C17460CF1300C08F8EA
:1007700001CDEEE7A8F1010003702188090501D53C
:10078000452100E06521A0F1010800F8011C09984D
:100790000FA9A1EB0807FF1D00B10120411901EBD2
:1007A000EA70A1693844081A401EA0612078C0068A
:1007B00002D42046AFF30080099828B1D4E9012182
:1007C0009047206A401C20622078C00622D520462F
:1007D000AFF300801EE0002E04DBB34502DD01A86C
:1007E000805D00E03020D4E901219047206A401C60
:1007F0002062761CAAF101005FEA000A0AD100F02B
:100800003FF8C0680168405CD4E901219047206A44
:10081000401C2062281EA5F10105DCDC07E0D4E9BC
:10082000012118F8010B9047206A401C2062381EF5
:10083000A7F10107F3DC2046AFF30080032011B0DD
:1008400041E6000001694A1C02610878704700B562
:100850008FB0CDE901310021059105497944CDE9F9
:10086000031011466846FFF7E5FC0FB000BD00001D
:10087000E5FFFFFF0A6802F8010B0A6070470000FD
:10088000004870474800002030B5B0F10A0271F10D
:1008900000034FEA900E4EEA817EB0EB0E0061EB52
:1008A00091014FEA101E4EEA017E10EB0E0041EB63
:1008B00011114FEA102E4EEA016E10EB0E0041EBC3
:1008C00011214FEA104E4EEA014E10EB0E0041EBA3
:1008D0001141401841F100014FEAD00040EA417057
:1008E0004FEAD1014FEA810444EA907410EB80058D
:1008F00044EB01046D1944EB0404521BA3414FF077
:10090000000348BF0A3200D530BD401C41F1000150
:1009100030BD00002DE9F0411F4604460326016862
:10092000072A01F4006004DB08B116A505E016A54E
:1009300003E008B115A500E015A521F01000206026
:10094000A069C01EA0610FB1401EA0612046AFF398
:1009500000804FB1D4E9012138469047206A401CFD
:100960002062C01C206206E0206AFAE7D4E9012177
:1009700015F8010B9047761EF8D22046AFF30080A1
:10098000BDE8F0814E414E006E616E00494E46005A
:10099000696E66002DE9F047814616468AB03548F3
:1009A00078440DC88DE80D0032487844801C03ACB3
:1009B0000DC884E80D0041F69B300844372190FBB8
:1009C000F1F290FBF1F5A5F1800501FB12041B3C4F
:1009D00002D56442012000E00020DFF898A08046A4
:1009E0000027FA44AAF1BE0A0EE0E0070AD0324618
:1009F000684607EB470101230AEB810103F0F1FE92
:100A00008DE8070064107F1C002CEED1194F7F4445
:100A1000AE3F19E0E80715D007EB04100DF1180AF6
:100A200090E80E008AE80E00C068F04201D19819E3
:100A300008903246012306A903A803F0D2FE03ABB7
:100A400083E807006D10641C002DE3D14FF0010313
:100A500032466946B8F1000F03A802D003F0ACFE9D
:100A600001E003F0BEFEC9E90001C9F808200AB0A0
:100A7000BDE8F087EC4900000048704728000020DE
:100A80007546FFF7F9FFAE4605006946534620F06C
:100A90000700854618B020B5FFF7A6FBBDE820404B
:100AA0004FF000064FF000074FF000084FF0000B2A
:100AB000AC46ACE8C009ACE8C009ACE8C009ACE899
:100AC000C00921F007018D46704710B50446AFF309
:100AD00000802046BDE81040FFF772BB0149182096
:100AE000ABBEFEE72600020070470000B0B582B042
:100AF00004460020019021688A68D2074BD188689B
:100B000040F00100886040F21800C2F20000006866
:100B10004DF68361C4F21B31A0FB0101880C0190EA
:100B20000198A0B1019801380190019878B101981D
:100B300001380190019850B1019801380190019855
:100B400028B101980138019001980028EAD100F0FD
:100B5000F1FD21688968C9071CD1054603E000BF83
:100B60008068C00716D100F0E5FD411B206803290D
:100B7000F6D38168C907F3D1A06A40F01000A062E3
:100B8000E06A40F00100E062002084F824000120C7
:100B900002B0B0BD002002B0B0BD0000FEE7000012
:100BA0002DE9F04F81B040F6004440F2900640F24B
:100BB00040594FF00008C4F20104C2F20006C2F22C
:100BC00000094FF0800A00274FF0000B06E000BF3D
:100BD000BBF1070F0BF1010B2F4643D200F0AAFD2A
:100BE000F06100BF00F0A6FD306220464FF40071B6
:100BF00000F08CFD20B9D6E9071002318142F1D80E
:100C0000D9F80000C0F82480416A272908D8416A31
:100C1000272905D8416A272902D8416A2829F3D310
:100C200020464FF4007100F071FD2AFA0BF141EA01
:100C3000070581F0FF01002808BF07EA010500F061
:100C400079FDF06100F076FD306220464FF40071CE
:100C500000F05CFD0028BBD0D6E9071002318142CC
:100C6000F0D8B5E7E8B201B0BDE8F08F70B584B058
:100C70004FF4007040F6004400900120C4F20104DB
:100C8000019002200026039069462046029600F05B
:100C900035FC20464FF40071002200F045FD122083
:100CA00000F018FC20464FF40071012200F03CFDDA
:100CB00040F24055C2F2000528684662416A1D298B
:100CC00008D8416A1D2905D8416A1D2902D8416A00
:100CD0001E29F3D301200026029069462046019682
:100CE00000F00CFC28684662416A272908D8416A4E
:100CF000272905D8416A272902D8416A2829F3D330
:100D000020464FF4007100F001FD88B121A60020BB
:100D10003421002502F000FD40F21001C2F2000172
:100D20003046012202F01CFF02F036FF17E000BF40
:100D300028680021416200BF416A4F2908D8416AF2
:100D40004F2905D8416A4F2902D8416A5029F3D367
:100D500020464FF4007100F0D9FCC8B1012500F025
:100D6000E9FC40F29006C2F20006F06100F0E2FCFD
:100D7000306220464FF4007100F0C8FC20B1D6E983
:100D8000071002318142F1D8284604B070BD00BF7F
:100D900004A6BCE744454255473A204E4F205245F1
:100DA0005053000044454255473A20535455434B55
:100DB000204C4F570000000070470000F0B581B094
:100DC00040F60004C4F2010420464FF40061012201
:100DD00000F0AAFC40F24055C2F20005286800214C
:100DE000416200BF416A092908D8416A092905D82A
:100DF000416A092902D8416A0A29F3D320464FF4EF
:100E00000061002200F090FC4FF4803620464FF441
:100E1000806100F07BFC18B9013EF7D106E000BF0D
:100E2000012E03D140F2E73001B0F0BD2868002167
:100E30004162466A0127CFF6FF7700BF20464FF494
:100E4000806100F063FC18B1002F07F10107F5D1B4
:100E50002868406A801B03F0E8FF4CF29C4246F68B
:100E60007203CBF22002C3F6A17303F0F1FF00235B
:100E7000C3F6E073002203F0EBFF03F0A9FF40F29A
:100E80009001C2F20001886001B0F0BD70B581B080
:100E90000022009290F82420012A03D10221084662
:100EA00001B070BD4A680123062A02EB820E80F869
:100EB000243007D8D0F800C06FF004030CF13406DA
:100EC0000CE000BFD0F800C00C2A87BF0CF12C0644
:100ED0006FF040030CF130066FF022030EEB0302BB
:100EE0001F23346803FA02F50B6824EA050503FAA8
:100EF00002F22A433260092B03EB43021AD9DCF8D1
:100F00000C601E3A072589689540AE43914023F056
:100F100001023143102ACCF80C1015D142F20041E5
:100F2000C4F201018C4517D0816A41F02001816231
:100F300001210AE0DCF81030072689689640B343A7
:100F400091401943CCF810100021002280F8242091
:100F5000084601B070BD00BF89680902F4D4DCF80E
:100F60000810102B41F40001CCF80810ECD140F22D
:100F70001801C2F2000109684DF68362C4F21B3207
:100F8000A1FB0212910C01EB810149000091009933
:100F90000029D9D000990139009100990029D3D0B6
:100FA00000990139009100990029CDD000990139AB
:100FB000009100990029C7D000990139009100994A
:100FC00000294FF00001E5D1BFE700000068C06CC8
:100FD00070470000002804BF01207047B0B50446E8
:100FE000806A28B121688868C0070CD115E000BF6D
:100FF0000020E06284F82400204600F097F8216881
:101000008868C00709D0886820F00100886000F077
:1010100091FB21688A68D20726D1A06AC0063AD41B
:10102000A06A41F2021290430230A062E069D4E962
:10103000013240EA030C531EB3FA83F35D091346F1
:10104000B2F5807F18BF2B02207D257B01284CEA5A
:1010500045002CD135B3A56A45F02005A562E56AA7
:1010600045F00105E56222E0054602E08868C00718
:10107000D3D000F05FFB401B21680328F6D38868BB
:10108000C007F3D0A06A40F01000A062E06A40F010
:101090000100E062A06AA06A40F01000A062012096
:1010A000B0BD00BFA56903EB4533A3F5C0534D6840
:1010B000B2F5807F25F4694543EA05034B608B68F0
:1010C0004FF2FD75CFF6E17503EA050343EA00032D
:1010D0008B6001D0012A07D122690023CFF6F0737B
:1010E00003EB025201E000BF0022CB6A23F470033D
:1010F0001A43CA62896840F6FE62CFF61F72114039
:10110000814207D10020E062A16A012262F301015D
:10111000A162B0BDA06A40F0100020F00200A06201
:10112000E06A40F00100E0620120B0BD80B586B009
:10113000014640F60040C4F20100096800F5C052C3
:1011400091424FF00001CDE90411CDE9021101D027
:1011500006B080BD41F21801C4F202010A6842F4EF
:1011600000720A600A6802F400720192019A0A6829
:1011700042F008020A60096801F008010191019932
:10118000022102910321039102A900F0B7F906B0F0
:1011900080BD00002DE9F04182B000270D460446D5
:1011A000019700F0C7FA21688A68D20544D4064640
:1011B0004868C00503D4C86A10F4700F46D040F2E6
:1011C0001800C2F20000076842F292480220C1F201
:1011D000492800F0F9FD216844F624130A69B7FB99
:1011E000F0F0C2F292431A4206D1CA6844F62413C0
:1011F000C0F292031A425BD00A6912EA080F07D1C3
:10120000CA6842F29243C0F249031A4200F0C08019
:101210000A6949F24923C0F224031A424FF0FC0242
:1012200054D1CF681F4208BF5422019B02FB00F734
:10123000BB4250D3C3E000BFA06A40F02000A062D0
:1012400084F82470012002B0BDE8F08108688007AE
:1012500000F1B580681C00F0A880FDB9086880071F
:1012600070D50868800700F1AA800868800769D5F2
:101270000868800700F1A3800868800762D50868C5
:10128000800700F19C80086880075BD508688007AC
:10129000E4D594E00868800700F1918000F04AFAF4
:1012A000801B2168A842F5D908688007F2D449E07C
:1012B0000A6912EA080F4FF0290207D1CB6842F2FF
:1012C0009247C0F249073B4208BF1422019B02FB30
:1012D00000F7BB4273D2681C52D05DBB0198B84284
:1012E00030D30198013001900198B84267D201983B
:1012F000B84227D30198013001900198B8425ED2DC
:101300000198B8421ED30198013001900198B8426B
:1013100055D20198B84215D3019801300190019837
:10132000B842DBD34BE000BF019801300190019837
:10133000B84235D200F0FEF9801BA842F4D90198DA
:10134000B842F1D2A06A40F00400A062002084F804
:101350002400032002B0BDE8F08100BF01980130F5
:1013600001900198B8422AD2019801300190019869
:10137000B84224D20198013001900198B8421ED29F
:101380000198013001900198B842E7D317E000BFFF
:101390005422019B02FB00F7BB429CD30FE000BF2D
:1013A00021680CE00868800709D40868800706D423
:1013B000086880075CBF08685FEA8070F2D56FF04C
:1013C00012000860A06A40F40070A062886800F40F
:1013D0006020B0F5602F01D1207B18B1002002B051
:1013E000BDE8F081A06A20F48070A062A06AC00409
:1013F000F4D4A06A40F00100A062002002B0BDE871
:10140000F081000010B5044690F82400012804BFC4
:10141000022010BD012084F824002046FFF766FB5F
:1014200020B1002084F82400012010BD42F2044CB9
:101430002068A16AC4F2010C40F2013291430CF51C
:101440007F7201F580719042A16229D0A16A21F4D6
:101450008011A1624168490504D5A16A012363F3A3
:101460000D31A162A16A0023C9044FF0000144BFFD
:10147000E16A21F00601E1626FF0020184F8243094
:101480000160816801F46021B1F5602F1BD19042A9
:1014900014D0816841F4A0018160002010BD00BF1C
:1014A000DCF8001011F4702FD0D0A16A41F4801143
:1014B000A162DCF800104905CFD4D3E7DCF80010B6
:1014C00011F4702FE5D0816841F480118160002013
:1014D00010BD0000B0B5044600F02CF9054640F2FE
:1014E0000000C2F200000078611C18BF044400BF75
:1014F00000F020F9401BA042FAD3B0BD2DE9F04F17
:1015000082B00E68002E00F0FD8041F20042C4F26D
:101510000102042340F2004E904208BF03234FF61D
:10152000FF7CC4F2010E009300240123C1F2100CD1
:101530004FF0000A4FF000094BE000BF41F20002FB
:10154000C4F20102009F904208BF022704F00C037E
:101550000F229A402BEA020207FA03F34FEA9A0598
:101560001A4346F825204E6840F20C45F202DEF898
:10157000082054BF22EA080242EA0802C4F2010528
:10158000CEF808202A68B30254BF22EA080242EAD1
:1015900008022A60B303DEF8042054BF22EA0802DE
:1015A00042EA0802F303CEF80420DEF800204FF0F0
:1015B000010354BF22EA080242EA0802CEF80020E2
:1015C0000E680AF1010A36FA0AF204F1040400F086
:1015D000998003FA0AFB16EA0B08F1D04E686645BB
:1015E00012DC122E56D8DFE806F0350B4D49555562
:1015F000555555555555555555555545510000BFEF
:10160000D1F80C9046E000BF4FF6FF72C1F2210204
:1016100096420FDC0022C1F2110296421AD000223B
:10162000C1F21202964215D00022C1F22102964266
:1016300010D02FE00022C1F2220296420AD00022EE
:10164000C1F23102964205D00022C1F23202964226
:1016500020D100BF8A684AB1012A14BFC0F814B073
:10166000C0F810B04FF0080914E000BF4FF00409B3
:1016700010E000BFCA6802F104090BE04FF0000956
:1016800008E000BFCA6802F1080903E0CA6802F175
:101690000C0900BF02462646B8F5807F24BF0432FD
:1016A000203E17680F25B54027EA050509FA06F61A
:1016B00035431560CA79D2067FF582AF41F218032F
:1016C000C4F202031A68AEF57E7642F001021A6097
:1016D0001A6802F001020192019A2AF0030256F8F8
:1016E00002B040F60002C4F20102904208D040F677
:1016F0000042C4F2010290427FF420AF012725E7A7
:10170000002723E702B0BDE8F08F000080680840A2
:1017100018BF012070470000C26802EA010391432C
:1017200041EA034101617047002A08BF09040161D1
:101730007047000040F2D050C2F2000000687047CD
:10174000002804BF01207047F0B581B0044690F82E
:101750003D0028B9002084F83C00204600F05AFAE9
:10176000242084F83D002068016821F00101016017
:10177000016841F400410160016821F40041016009
:1017800000F0FEFC636848F2A16CC0F2010C40F668
:101790000011C0F23D0163453CBF48F28041C0F2F8
:1017A0001E01884202D2012001B0F0BD4DF68361D6
:1017B000C4F21B31A0FB01122168970CD1F804E0A0
:1017C0004FF496762EF03F0545EA92454D607743FB
:1017D00048F638160D6AC0F24106A7FB067625F0DA
:1017E0003F07634538BF960C721C3A430A62CA69C8
:1017F00048F2A0664CF6FF77C0F20106B34222EA37
:1018000007020BD801385B00B0FBF3F001306FF337
:101810001F30042898BF04201BE000BFA7680138D0
:1018200057B119277B43B0FBF3F001306FF31F3042
:1018300070B100F5804007E003EB4303B0FBF3F029
:1018400001306FF31F3018B100F5004001E000BF18
:1018500001201043C8610868D4E9072320F0C000C4
:10186000104318430860886848F2FF3204F10C07FF
:1018700090438CCF18431043A6698860C86820F055
:10188000FF0038433043C860086840F0010008603A
:1018900000202021206484F83D10206384F83E005D
:1018A00001B0F0BD2DE9F04F83B01E469246884648
:1018B0000446FFF73FFF94F83D10202924D121680A
:1018C000054600BF886980071AD5FFF733FF401B24
:1018D00021681A28F6D388698007F3D500202021D3
:1018E000206384F83D1084F83E00216C41F0200113
:1018F000216484F83C00022003B0BDE8F08F00BFF3
:1019000094F83C00012803D1022003B0BDE8F08F19
:101910004FF0010984F83C900868C00703D10868BB
:1019200040F0010008600868002720F400600860AB
:10193000242084F83D000020CFF6FF702764E06289
:1019400008F0FE08BAF1010F88BFD1464FF0A00A97
:101950004FF0200B04E000BF01374F4500F0A2809C
:101960000868002240F48070086020464FF00111A2
:101970003346009501F038FB2168002856D1C1F8A4
:101980001080FFF7D7FE21684B694A6994F83D50F3
:10199000A02D054605D013F0020008BF12F48060A8
:1019A0001AD084F83DB048690A68800742F4007292
:1019B0000A6045D46FF48060486100BF8869800781
:1019C000CAD5FFF7B7FE401B21681A28F6D38869ED
:1019D0008007F3D54AE000BFB6B100BFFFF7AAFE0B
:1019E000401BB04288BF84F83DA021684A6948691D
:1019F00094F83D30A02BD4D012F0020208BF10F4AE
:101A00008060EBD0CDE700BFFFF794FE84F83DA0E7
:101A100021684A69486994F83D30A02BC1D012F082
:101A20000202BED110F48060EED0BAE70868C005AB
:101A300044BF4FF400702064032003B0BDE8F08F72
:101A40000020029048690290886902900298886993
:101A500001E000BF806980071AD5FFF76BFE411BCC
:101A600020681A29F6D381698907F3D5002020213F
:101A7000206384F83D1084F83E00216C41F0200181
:101A8000216484F83C00012003B0BDE8F08F00BF62
:101A9000202084F83D00002084F83C0003B0BDE81D
:101AA000F08F00BF202084F83D00002084F83C0027
:101AB000012003B0BDE8F08F2DE9F04383B09946D3
:101AC00016460F460446FFF735FE94F83D102029D0
:101AD00024D10546206800BF816989071AD5FFF720
:101AE00029FE411B20681A29F6D381698907F3D59D
:101AF00000202021206384F83D1084F83E00216CF2
:101B000041F02001216484F83C00022003B0BDE8CC
:101B1000F08300BF94F83C10012903D1022003B0E8
:101B2000BDE8F083012284F83C200368DDE90B184E
:101B30000A9ADB0703D1036843F0010303600368DB
:101B400023F400630360212084F83D00402084F8E2
:101B50003E000020206462626185608D39462085E8
:101B60000020CFF6FF70E062204632464B46CDE9BA
:101B7000008501F077F918B1012003B0BDE8F083CA
:101B8000208D98B9204641462A4601F0CFF988B306
:101B9000206C0428F0D12068016841F400710160D4
:101BA000012003B0BDE8F0830004EBD0204641469D
:101BB0002A4601F06BFB0028EAD1616A22680846D8
:101BC00010F8013B1361238D6062581E2085678DDC
:101BD000013F678557697F07E6D50704E4D0487859
:101BE0001061881C6062981E2085618D01396185B5
:101BF000DAE700BF2068016841F40071016020202D
:101C000084F83D00002084F83E0084F83C0003B0D6
:101C1000BDE8F08310B586B0016845F20040C4F21B
:101C2000000081424FF00001CDE90411CDE902111D
:101C300002D006B010BD00BF41F21804C4F2020485
:101C4000216800F5384041F008012160216801F069
:101C5000080101910199C0210291122103910321F0
:101C6000059102A9FFF74AFC606840F4001060602B
:101C7000606800F400100190019806B010BD0000EB
:101C800040F2000040F2D051C2F20000C2F2000166
:101C900000780A68104408607047000080B542F27E
:101CA0000000C4F20200016841F01001016003204D
:101CB00000F07AF80F2000F005F800F027F8002077
:101CC00080BD000070B540F20006C2F2000640F28E
:101CD00018013278C2F200014FF47A730968B3FB3D
:101CE000F2F20446B1FBF2F1084600F071FC0F2C51
:101CF0004FF0010508D838B94FF0FF3021460022D7
:101D0000002500F025F87460284670BD82B041F2CD
:101D10001800C4F202000168022241F001010160D2
:101D2000016801F0010101910199416841F0805180
:101D30004160406800F08050009000980420C4F298
:101D40000100016862F31A61016002B0704700008F
:101D500010B54EF60C5CCEF2000CDCF80030C3F38C
:101D6000022E8EF00704042C28BF0424BEF10303C6
:101D70004FF0FF3E0EFA04F438BF0023A143994010
:101D80000EFA03F39A43114300F00F0200F160438F
:101D90000901043A03F564436244002848BF02F194
:101DA0000C03197010BD00004EF60C51CEF200016C
:101DB0000A684FF6FF031A4060F30A2242F080607F
:101DC00040F0FD7008607047012821D002280DD036
:101DD000102808D141F20401C4F202010A6851F846
:101DE000040CC00134D40020704700BF80B500F05F
:101DF000DBF941F20401C4F2020109680222C1F3D5
:101E0000813102EB4101B0FBF1F0BDE88040704749
:101E100041F20400C4F20200C16940F202320A40F9
:101E2000B2F5817F04BF4FF40040704701F4407168
:101E3000B1F5407F18D0B1F5007F1CBF002070477E
:101E4000006A49F64041800701EAE070704700BF30
:101E5000C2F3834015A3185CD2030DD440F60012E0
:101E6000C0F23D02504313E050F8040C4FF22441FD
:101E7000800301EAE07070470A6810A3C2F3404291
:101E80009A5C41F20023C0F27A03B3FBF2F25043B2
:101E90000968490248BF70474AF6AB214000CAF6BC
:101EA000AA21A0FB01014808704700BF02030405F6
:101EB000060708090A0B0C0D0E0F10100102000096
:101EC0002DE9F04182B00446007841F21C06C007BB
:101ED000C4F202064AD030685FEAC00808D430680D
:101EE00040F080503060306800F0805001900198E0
:101EF00047F20007C4F200073868C00512D43868FA
:101F000040F480703860FFF715FC05463868C0055E
:101F100008D4FFF70FFC401B6428F7D9032002B058
:101F2000BDE8F081706810F4407012D0616801F46F
:101F3000407188420DD0706840F24042C4F24222A3
:101F4000012320F4407113600023C0071360716007
:101F500026D17068616820F440700843B8F1000F22
:101F6000706003D4306820F08050306020688107B2
:101F700007D556F8181CA26821F44041114346F8D1
:101F8000181CC00607D556F8180CE16820F480002C
:101F9000084346F8180C002002B0BDE8F08100BFED
:101FA000FFF7C8FB054641F2883700BF706880071D
:101FB000CFD4FFF7BFFB401BB8424FF00300F5D969
:101FC000EAE70000002804BF012070472DE9F04334
:101FD00081B042F20008C4F202080446D8F80000BA
:101FE0000D4600F0070081420CD9D8F8000020F01F
:101FF00007002843C8F80000D8F8000000F00700E8
:10200000A8426CD1206841F204098107C4F2020998
:1020100017D5410705D5D9F8001041F4E061C9F89A
:102020000010010705D5D9F8001041F46051C9F836
:102030000010D9F80010A26821F0F0011143C9F88E
:102040000010C00742D1D8F8000000F00700854218
:102050000CD2D8F8000020F007002843C8F8000090
:10206000D8F8000000F00700A84238D120684107E6
:1020700007D5D9F80010E26821F4E0611143C9F8EE
:102080000010000708D5D9F80000216920F460503D
:1020900040EAC100C9F80000D9F8002002F00C00A5
:1020A000082841F20020C0F27A004DD146F68A039A
:1020B000C2F38341C0F60003595CD20338D440F622
:1020C0000010C0F23D0048433EE000BF606859F890
:1020D000041C022808D0012826D1890306D4012037
:1020E00001B0BDE8F08300BF8901F8D5D9F8001030
:1020F00021F003010843C9F80000FFF71BFB064667
:1021000041F28837D9F80000616800F00C00B0EBAC
:10211000810F98D0FFF70EFB801BB842F2D9032045
:1021200001B0BDE8F08300BF8907D8D5DEE700BF66
:10213000D9F8002046F68803C2F34042C0F60003F7
:102140009A5C4843B0FBF2F0D9F8001045F2A8328F
:10215000C1F30311C0F60002515C40F2180220FAEC
:1021600001F140F20400C2F200000068C2F2000275
:102170001160FFF7A7FD002001B0BDE8F08300006B
:1021800040F2180041F20401C2F20000C4F2020160
:102190000068096845F2B832C1F30221C0F60002B6
:1021A000515CC8407047000040F2180041F2040141
:1021B000C2F20000C4F202010068096845F2B832B8
:1021C000C1F3C221C0F60002515CC8407047000054
:1021D000002804BF012070472DE9F04182B0044679
:1021E000007841F20006C007C4F202060CD0706805
:1021F00000F00C00042840F081803068800303D593
:102200006068002800F04681207880071BD5706840
:1022100010F00C0F09D0706800F00C00082840F096
:1022200087807068C00300F183803068800703D521
:102230002069012840F02E813068616920F0F800A3
:1022400040EAC10030602078000713D420784007AE
:102250002CD4E569002D00F01881706800F00C00A6
:10226000082840F0A780012D40F00481012002B031
:10227000BDE8F081A069002800F084800020C4F24D
:1022800042200121C0F88014FFF754FA054600BF30
:10229000706A800700F1B280FFF74CFA401B0228F9
:1022A000F6D9032002B0BDE8F08100BFF0695FEA13
:1022B000C00808D4F06940F08050F061F06900F087
:1022C00080500090009847F20007C4F20007386879
:1022D000C00549D4386840F480703860FFF72AFAA6
:1022E000054600BF3868C0053ED4FFF723FA401BFF
:1022F0006428F7D9032002B0BDE8F081706800F0CF
:102300000C00082803D17068C0033FF576AF616800
:102310003068002900F00C81B1F5A02F00F0008199
:10232000B1F5803F40F01A8140F480301CE100BFDD
:102330002069002840F20000C4F2422000F08880AA
:1023400001210160FFF7F6F9054600BF30688007FC
:102350003FF572AFFFF7EEF9401B0228F6D90320D4
:1023600002B0BDE8F08100BFE168306A002900F0EA
:102370009D80052900F09280012940F0AF8040F057
:102380000100B1E00020C4F242200021C0F8801416
:10239000FFF7D0F9054600BF706A80077FF556AF9A
:1023A000FFF7C8F9401B0228F6D9032002B0BDE8A8
:1023B000F08100BF0027C4F2422700203866FFF7F3
:1023C000B9F9022D05460DD13068800140F1DE805B
:1023D000FFF7B0F9401B02284FF00300F4D902B018
:1023E000BDE8F081306880014FD5FFF7A3F9401BAD
:1023F00002284FF00300F5D9F1E700BF40F21800C2
:10240000C2F20000006844F6D351C1F26201A0FBA1
:102410000101480A019000BF00BF0198411E002839
:1024200001913FF413AF00BF0198411E00280191B4
:102430003FF40CAF00BF0198411E002801913FF40A
:1024400005AF00BF0198411E00280191E4D1FDE6CF
:1024500000210160FFF76EF9054600BF3068800774
:102460007FF5F1AEFFF766F9401B02284FF003003D
:10247000F4D9B4E77068216A00F480328A4209D145
:10248000616A00F47010884204D1002002B0BDE8F7
:10249000F08100BF012002B0BDE8F08140F00400EF
:1024A0003062306A40F001001EE000BF20F0010001
:1024B0003062306A20F004003062FFF73BF90546D5
:1024C00041F28837306A800720D5FFF733F9401B87
:1024D000B8424FF00300F5D981E700BF20F00100BA
:1024E0003062306A20F004003062FFF723F90546BD
:1024F00041F28837306A800708D4FFF71BF9401B88
:10250000B842F7D9032002B0BDE8F081B8F1000F5E
:102510003FF59FAEF06920F08050F06199E600BF72
:1025200040F480203060306840F480301CE000BF10
:1025300020F480303060306820F480203060FFF775
:10254000F9F80546306880037FF55EAEFFF7F2F8D4
:10255000401B64284FF00300F4D940E720F480309A
:102560003060306820F480203060FFF7E3F80546E3
:10257000306880033FF548AEFFF7DCF8401B642865
:10258000F6D9032002B0BDE8F08100BF206AB0F5A3
:10259000803F05D17168A26821F400311143716058
:1025A0007168626A21F4741111430843706001205C
:1025B0003866FFF7BFF80446306880013FF565AF25
:1025C000FFF7B8F8001B02284FF00300F4D906E724
:1025D000411E0020B0EB116F1CBF012070474EF26E
:1025E0001002CEF2000251604EF62351CEF20001ED
:1025F000F0230B70072190601160704790F83C2029
:10260000012A04BF02207047B0B501F108053CCD96
:10261000D1E900CE23F47C5322F470521A432EF4F5
:10262000F0431A432CF4E0431A4324F4C0431A4302
:102630002A43C96922F48042036811435964002186
:1026400080F83C100020B0BD90F83C20012A4FF0EB
:10265000020236D010B580F83D200268D2F804E0BE
:10266000D2F808C00C682EF07003234340F2FF74C8
:10267000C4F20004A24253600ADCB2F1804F13D0CE
:1026800040F20043C4F200039A420DD011E000BFB3
:1026900042F60043C4F201039A4205D040F600031B
:1026A000C4F200039A4204D149682CF08003194314
:1026B00091600121002280F83D1080F83C20BDE8A7
:1026C0001040104670470000002804BF01207047EA
:1026D00010B590F83D1031B9002180F83C10044647
:1026E00000F070F82046022180F83D10016840F2A9
:1026F000FF740B68C4F2000442F6004CA142C4F21D
:10270000010C15DCB1F1804F1AD040F20042C4F246
:102710000002914214D0A14218DCB1F1804F1DD0CB
:1027200040F20042C4F20002914217D01AE000BF0A
:10273000614505D040F60002C4F200029142EAD1A0
:10274000826823F070031343A142E6DD614505D0A2
:1027500040F60002C4F20002914203D1026923F460
:1027600040731343846923F08002D0F804E0C36807
:10277000224361450A60CB62C1F828E002D1426978
:10278000CCF8302001224A610B69DB0703D00B69CA
:1027900023F001030B6180F8462080F83E2080F88A
:1027A0003F2080F8402080F8412080F8422080F8C7
:1027B000432080F8442080F8452080F83D20002008
:1027C00010BD000082B0006840F60001C4F20001B4
:1027D000884215D042F60041C4F2010188421CD162
:1027E00041F21800C4F20200016841F40061016086
:1027F000006800F400600190019802B0704700BFCB
:1028000041F21800C4F20200416841F00401416045
:10281000406800F004000090009802B0704700008B
:1028200090F83D1001291CBF01207047022180F85B
:102830003D10006840F2FF71C4F20001884209DCDB
:10284000B0F1804F12D040F20041C4F20001884242
:102850000CD012E042F60041C4F20101884205D0DA
:1028600040F60001C4F20001884206D1816801F0FF
:102870000701062904BF00207047016841F00101EB
:10288000016000207047000090F83C20012A4FF0C2
:1028900002026CD080B580F83D20D0F800C04FF621
:1028A0007772DCF8083023EA0202CCF808200B68C3
:1028B0004F2B29DC1F2B45DD202B46D0302B44D05D
:1028C000402B40F0AF80D1F804E0C968DCF820303C
:1028D000DCF8202022F00102CCF82020DCF81820BF
:1028E00022F0F00242EA011123F00A0242EA0E024B
:1028F000CCF81810CCF82020DCF8081041F0470183
:1029000021F0300128E000BF6F2B33DDB3F5005F0D
:1029100074D0B3F5805F21D0702B40F08380D1E973
:1029200001E3C968DCF8082043EA0E0322F47F4281
:1029300043EA01211143CCF80810DCF8081041F0FB
:10294000770109E00BB1102B6CD1DCF8081021F0F5
:102950007001194341F00701CCF808100022012151
:1029600080F83D10002180F83C10BDE88040104602
:10297000704700BF502B21D0602B53D1D1F804E019
:10298000C968DCF82030DCF8202022F01002CCF8F6
:102990002020DCF8182022F4704242EA013123F0B2
:1029A000A00242EA0E12CCF81810CCF82020DCF875
:1029B000081041F0670121F01001CDE7D1F804E0E3
:1029C000C968DCF82030DCF8202022F00102CCF8C5
:1029D0002020DCF8182022F0F00242EA011123F056
:1029E0000A0242EA0E02CCF81810CCF82020DCF8DB
:1029F000081041F0570121F02001ADE7D1E901E3D2
:102A0000C968DCF8082043EA0E0322F47F4243EA57
:102A100001211143CCF80810DCF8081041F4804182
:102A20009AE700BF01229AE780B586B0016840F6B8
:102A30000000C4F2000081424FF00001CDE9041112
:102A4000CDE9021102D006B080BD00BF41F21801ED
:102A5000C4F202010A6800F5823042F008020A60FE
:102A6000096801F00801019101994FF48071029108
:102A700002210391059102A9FEF740FD06B080BD39
:102A800090F83C30012B04BF022070474FEAB2029D
:102A9000032A00F2F1802DE9F043DFE802F003A5FC
:102AA0003B7500BF036842F600461D6A1A6AC4F20D
:102AB000010622F001021A621A465C6852F818CF29
:102AC000B3428E68D1F800E025F0020545EA06051C
:102AD0000CD1CE68D1E9057824F4407425F00C05BA
:102AE00026F004063C43354344EA08042CF07307FF
:102AF00047EA0E075C609F614F6809695F631D626A
:102B00009F6947F008079F619F6927F004079F614D
:102B1000A6E000BF036842F600461D6A1A6AC4F2C6
:102B2000010622F480721A621A46D3F804C052F8E1
:102B30001CEFB3428E680C6825F4007545EA062543
:102B40000FD1CE68D1E90598360240F2FF4725F44F
:102B50004065BE4335432CF4405748EA090647EA2E
:102B6000061C2EF073072743C3F804C0DF614F68CB
:102B70000969DF631D62DF6947F00807DF61DF690C
:102B800027F00407DF616BE0036842F60047D3F8E3
:102B900020C01A6AC4F2010722F480521A621A464F
:102BA0005C6852F81C5FD1F800E08E68BB4204D12B
:102BB0004F6924F4804444EA87142CF4005747EA10
:102BC000063725F4E64646EA0E265C60DE614E686E
:102BD00009691E641F62DF6947F40067DF61DF690E
:102BE00027F48067DF613AE0036842F600461D6A19
:102BF0001A6AC4F2010622F010021A621A46D3F8C9
:102C000004C052F8184FB3428E68D1F800E025F0A6
:102C1000200545EA06150FD1CE68D1E905986FF079
:102C2000400725F0C00507EA061635432CF4406737
:102C300048EA090647EA860C24F4E64444EA0E27EB
:102C4000C3F804C09F614F6809699F631D629F6953
:102C500047F400679F619F6927F480679F610902BD
:102C60001368194311600021BDE8F043002280F889
:102C70003C200846704700BF0121002280F83C201C
:102C800008467047002804BF0120704710B590F82F
:102C90003D1031B9002180F83C10044600F070F876
:102CA0002046022180F83D10016840F2FF740B6855
:102CB000C4F2000442F6004CA142C4F2010C15DC3F
:102CC000B1F1804F1AD040F20042C4F200029142AA
:102CD00014D0A14218DCB1F1804F1DD040F2004267
:102CE000C4F20002914217D01AE000BF614505D03E
:102CF00040F60002C4F200029142EAD1826823F059
:102D000070031343A142E6DD614505D040F60002A1
:102D1000C4F20002914203D1026923F440731343C9
:102D2000846923F08002D0F804E0C368224361453F
:102D30000A60CB62C1F828E002D14269CCF83020A9
:102D400001224A610B69DB0703D00B6923F0010301
:102D50000B6180F8462080F83E2080F83F2080F804
:102D6000402080F8412080F8422080F8432080F8FD
:102D7000442080F8452080F83D20002010BD000050
:102D800070470000C1B1042908D0082914BF4122AE
:102D90004022825C012A05D016E000BF3F22825CFF
:102DA000012A11D10222082910D0042914BF80F869
:102DB000412080F83F200BE090F83E20012A03D10B
:102DC000022280F83E2003E00120704780F8402076
:102DD000006801F01F010122036A8A4023EA020110
:102DE0000162036A42F64441C4F201011A43A1F1AF
:102DF0004403984202620FD040F2FF71C4F2000116
:102E0000884213DCB0F1804F1CD040F20041C4F284
:102E10000001884216D01CE00A6842F400420A60B1
:102E200040F2FF71C4F200018842EBDD42F600413E
:102E3000C4F20101884205D040F60001C4F200014D
:102E4000884206D1816801F00701062904BF0020ED
:102E50007047016841F001010160002070470000E7
:102E6000FEE700002DE9F04383B0044600680F46FA
:102E700001680A9D0B9E41F480719946904601605D
:102E800020464FF0011100222B46009600F0ACF8CE
:102E900050B120680068C00544BF4FF40070206442
:102EA000032003B0BDE8F083206807F0FE01016154
:102EB0000221C0F2010120462A46334600F07AF989
:102EC00020B1012003B0BDE8F08300BF00200290D4
:102ED0002068324641690291806929460290029831
:102EE000204600F0D3F958B1206C0428E9D12068BD
:102EF000016841F400710160012003B0BDE8F08376
:102F00002068B9F1010F0AD04FEA1821016120466B
:102F10002946324600F0BAF90028E5D120685FFA68
:102F200088F10161002003B0BDE8F08370B503684B
:102F3000044653F8140F400711D40E46481C29D0FC
:102F400086BB00BF1868400527D4FEF7F3FB236853
:102F500053F8140F400737D518684007F2D5002002
:102F600070BD00BF18684007F9D41868400514D434
:102F700018684007F3D4186840050ED41868400755
:102F8000EDD41868400508D4186840074FF00000D9
:102F900048BF70BD18684005E4D56FF480601860C4
:102FA000042012E0154603E053F8140F4007D6D46E
:102FB00018684005F1D4FEF7BDFB401B2368B04202
:102FC000F2D958694007EFD4202000212022216344
:102FD00084F83D2084F83E10226C104320640120C8
:102FE00084F83C1070BD00002DE9F04105460068F2
:102FF0001E46144601F47F0201338FB242D0DDF841
:103000001880B2F5803F40F0878040693840C01B8F
:10301000B0FA80F04009844240F0C8804EB924E004
:1030200040693840C01BB0FA80F04009844240F04B
:10303000BD80FEF77FFBA0EB08012868B142EFD905
:1030400041693940C91BB1FA81F149098C42E7D184
:103050009BE000BF40693840C01BB0FA80F04009D7
:1030600084424FF0000040F0A280FEF763FB286826
:1030700041693940C91BB1FA81F149098C42E9D152
:1030800083E000BFB2F5803F24D100BF41693940E1
:10309000C91BB1FA81F149098C4240F0878041692E
:1030A0003940C91BB1FA81F149098C4240F07E8058
:1030B00041693940C91BB1FA81F149098C4275D186
:1030C00041693940C91BB1FA81F149098C42DDD00F
:1030D0006CE000BF81693940C91BB1FA81F149092F
:1030E0008C4263D181693940C91BB1FA81F1490928
:1030F0008C425BD181693940C91BB1FA81F1490920
:103100008C4253D181693940C91BB1FA81F1490917
:103110008C42DFD04AE000BF80693840C01BB0FA63
:1031200080F04009844241D146B923E080693840AB
:10313000C01BB0FA80F04009844237D1FEF7FAFA9A
:10314000A0EB08012868B142F0D981693940C91B58
:10315000B1FA81F149098C42E8D116E08069384022
:10316000C01BB0FA80F0400984424FF0000018BF45
:10317000BDE8F081FEF7DEFA286881693940C91B95
:10318000B1FA81F149098C42E8D10020202128635D
:1031900085F83D1085F83E00296C41F02001296436
:1031A00085F83C000120BDE8F08100BF0020BDE8AB
:1031B000F0810000F0B581B0044600681D46436907
:1031C0008FB203EA0701B94202D1002001B0F0BD7D
:1031D0004169164601323CD0490512D47EB300BF86
:1031E000FEF7A8FA411B2068B14203D94169394072
:1031F000B9422BD141693940B942E6D0416949050C
:10320000EED5016841F4007101606FF480614161A5
:10321000042000212022216384F83D2084F83E1000
:10322000226C1043206484F83C10012001B0F0BDF2
:1032300041693940B942C8D041694905E1D4FEF736
:1032400079FA206841693940B942F1D02020E0E79D
:1032500041694905D5D441693940B942B5D0416980
:103260004905CED441693940B942AED041694905DA
:10327000C7D441693940B942A7D041694905C0D492
:1032800041693940B942E3D19FE7000070B5036856
:10329000044653F8140F000611D40E46481C29D0DA
:1032A00086BB00BF1868400527D4FEF743FA2368A1
:1032B00053F8140F000637D518680006F2D5002021
:1032C00070BD00BF18680006F9D41868400514D412
:1032D00018680006F3D4186840050ED41868000674
:1032E000EDD41868400508D4186800064FF00000B7
:1032F00048BF70BD18684005E4D56FF48060186061
:10330000042012E0154603E053F8140F0006D6D44B
:1033100018684005F1D4FEF70DFA401B2368B0424F
:10332000F2D958690006EFD4202000212022216321
:1033300084F83D2084F83E10226C10432064012064
:1033400084F83C1070BD0000FEE70000FEE70000BE
:10335000704700002DE9F04F85B040F60048C4F2F8
:103360000108FDF72BFD064640460121FEF7CEF988
:103370008246002000F0C2F940F29009C2F2000932
:1033800099F8000001282FD0002866D140464FF45C
:10339000804100220024FEF7C7F9701E0A2831D3AD
:1033A000BAF1000F2ED02D200A2100F0B5F940F21D
:1033B0000801C8A0C2F20001012200F0D1FB1920CF
:1033C000232100F0A9F940F21001C4A0C2F20001CB
:1033D000012200F0C5FB0020C9F8140000F0DCFB5E
:1033E00005B0BDE8F08F00BF09F12C042046FEF7C0
:1033F00009F820460521FDF7CDFE98B3FDF736FC10
:10340000C8BB85E00020002100F086F940F21001E1
:10341000B6A0C2F20001012200F0A2FBD9F81410FC
:103420004FF02D3001290194009003DB68462A22D9
:10343000FCF787FF30201E2100F06EF940F20801F2
:10344000C2F200016846012200F08AFB00F0FEFB98
:10345000002818BF232840F0DF8000F09DFB05B056
:10346000BDE8F08F2046FDF7B1FDC9F81800FDF763
:10347000FDFB00284CD0FDF793FB89F80100FDF718
:103480008FFB89F80200FDF78BFB89F80300FDF73D
:1034900087FB89F80400FDF783FB99F8014099F850
:1034A0000270014699F8030099F804503A19024451
:1034B0002A448A4289F805102AD101F055FE834634
:1034C000284601F0B2FC0023C4F2240300220025A8
:1034D00001F022FB01F0EEFA0146584601F0E2FD50
:1034E000C9F80C00204601F03FFE0446384601F0C2
:1034F0009CFC00230022C4F2240301F00DFB01F028
:10350000D9FA0146204601F0CDFDC9F8100000E0CF
:1035100001250020002100F0FFF840F2100158A022
:10352000C2F20001012200F01BFBD9F8180040F2A2
:10353000DD51884210D30A20192100F0EDF840F245
:1035400008015CA0C2F20001012200F009FB404624
:103550004FF4805101222FE085BBD9F80C0001F017
:1035600075FD6C4602460B464AA12046FCF74EFE0E
:103570000020142100F0D0F840F21007C2F200073A
:1035800020463946012200F0EBFAD9F8100001F08C
:103590005DFD02460B4643A12046FCF737FE0020A6
:1035A000282100F0B9F820463946012200F0D8FA67
:1035B00040464FF480510022FEF7B6F8102E15D386
:1035C000BAF1000F12D040464FF480410022FEF7BE
:1035D000ABF840F28850C2F200000068FA21C163E3
:1035E00000F0DAFA05B0BDE8F08F00BFBAF1000FC5
:1035F0007FF433AF0020352100F08EF840F2100147
:103600002FA0C2F20001012200F0AAFA00F0C4FAD1
:1036100005B0BDE8F08F00BF2A283FF41EAFD9F8EF
:1036200014104A1C4944042AC9F8142081F82400C3
:103630007FF413AF40F21C01002409F12400C2F210
:10364000000189F82840FCF7ABFE80B9012089F819
:10365000000040464FF480410122FEF765F840F239
:103660008850C2F20000006840F2EE21C163C9F840
:103670001440C9F8244000F08FFA05B0BDE8F08F7F
:103680002D2D2D2044415348424F415244202D2D91
:103690002D00000054656D703A20252E31662043C0
:1036A0000000000048756D3A2020252E3166202547
:1036B0002500000047415320414C45525421000051
:1036C0004F626A65637420696E20506174682E2EA3
:1036D0002E00000056414959410000004749564517
:1036E00020424F4E555320504C530000456E746598
:1036F000722050617373776F72643A0080B502462E
:10370000002840F2EC00C2F200004FF4806118BFC4
:10371000FF22FCF716FE80BD40F28802C2F20002D2
:1037200050809180704700002DE9F04784B06420FC
:103730006426FDF7CFFE40F2EC40C2F20000782193
:10374000012244F620630127FEF7ACF84FF0000891
:1037500020B1404604B0BDE8F08700BF40F2EC4520
:10376000AE20C2F200058DF80F000DF10F042846BF
:10377000782100220123CDE900470296FEF79CF94B
:103780004FF0200928467821002201238DF80F9060
:10379000CDE900470296FEF78FF94FF0100A284650
:1037A0007821002201238DF80FA0CDE90047029671
:1037B000FEF782F9B0208DF80F002846782100220C
:1037C0000123CDE900470296FEF776F9C8208DF86F
:1037D0000F002846782100220123CDE900470296F8
:1037E000FEF76AF928467821002201238DF80F8020
:1037F000CDE900470296FEF75FF9284678210022BE
:1038000001238DF80FA0CDE900470296FEF754F989
:1038100040208DF80F002846782100220123CDE9B1
:1038200000470296FEF748F981208DF80F002846E0
:10383000782100220123CDE900470296FEF73CF9EA
:10384000FF208DF80F002846782100220123CDE9C2
:1038500000470296FEF730F9A1208DF80F002846A8
:10386000782100220123CDE900470296FEF724F9D2
:10387000A6208DF80F002846782100220123CDE9EB
:1038800000470296FEF718F9A8208DF80F00284689
:10389000782100220123CDE900470296FEF70CF9BA
:1038A0003F208DF80F002846782100220123CDE922
:1038B00000470296FEF700F9A4208DF80F00284675
:1038C000782100220123CDE900470296FEF7F4F8A3
:1038D000D3208DF80F002846782100220123CDE95E
:1038E00000470296FEF7E8F82846782100220123D7
:1038F0008DF80F80CDE900470296FEF7DDF8D52060
:103900008DF80F002846782100220123CDE90047D9
:103910000296FEF7D1F8F0208DF80F0028467821A6
:1039200000220123CDE900470296FEF7C5F8D92011
:103930008DF80F002846782100220123CDE90047A9
:103940000296FEF7B9F822208DF80F00284678215C
:1039500000220123CDE900470296FEF7ADF8DA20F8
:103960008DF80F002846782100220123CDE9004779
:103970000296FEF7A1F812208DF80F002846782154
:1039800000220123CDE900470296FEF795F8DB20DF
:103990008DF80F002846782100220123CDE9004749
:1039A0000296FEF789F828467821002201238DF837
:1039B0000F90CDE900470296FEF77EF88D208DF836
:1039C0000F002846782100220123CDE90047029606
:1039D000FEF772F814208DF80F0028467821002297
:1039E0000123CDE900470296FEF766F8AF208DF877
:1039F0000F002846782100220123CDE900470296D6
:103A0000FEF75AF82E208DF80F0028467821002264
:103A10000123CDE900470296FEF74EF840F2EC0094
:103A2000C2F200004FF48061FCF793FC00F0B4F8A0
:103A300040F28800C2F20000C0F802804FF0010896
:103A4000404604B0BDE8F0872DE9F04F87B040F262
:103A50008803C2F20003B3F802A00D7805EB0A0751
:103A60007F2F06D89E8891F801C00CEB06073F2FE8
:103A700004D9002007B0BDE8F08F00BFBCF1000FF3
:103A8000009061D01B782038B3FA83F77F09029643
:103A9000B2FA82F601907009D21B05900298002BB1
:103AA00018BF0123B2FA82F240F2EC090693002615
:103AB00052092B46C2F20009049203E000230136AA
:103AC000664541D2002BF9D0821994B23F2CF6D82A
:103AD00001984C680CFB00F004EB400030F81680B5
:103AE00002F00700012303FA00F44FF4607000EACB
:103AF000021EE0430027039604E000BF0D78013763
:103B0000AF421BD20AEB0705ABB27F2BF6D845EAD2
:103B10000E05ADB208FA07F319F805B01B04049BB3
:103B20000BEA000CDDE9052658BF82EA0603002BEC
:103B300018BF4BEA040C09F805C0DFE791F801C093
:103B4000DDE902062B46BAE7E8B240F288015044AC
:103B5000C2F2000148805DF81C0BBDE8F08F000048
:103B60000378002B04BF0020704770B514460D4643
:103B7000461C00BFD8B229462246FFF765FF16F85B
:103B8000011C884204D116F8013B002BF2D1002120
:103B9000BDE87040084670472DE9F04F85B040F20F
:103BA000EC0640F2EC44C2F2000664270125C2F2A2
:103BB00000044FF0100B0DF113084FF080094FF087
:103BC000000A00BF4AF0B0008DF811000DF111009D
:103BD000CDE9000520467821002201230297FDF758
:103BE0006BFF00208DF812000DF11200CDE90005E9
:103BF00020467821002201230297FDF75DFF204631
:103C00007821002201238DF813B0CDE900850297B9
:103C1000FDF752FF2046782140220123CDE90069BB
:103C20000297FDF749FF0AF1010ABAF1080F06F100
:103C30008006C7D105B0BDE8F08F000070470000D6
:103C4000FEF71EB870470000FEE7000010B540F612
:103C50000004C4F20104204680210122FDF764FD26
:103C6000204640210022FDF75FFD20462021002252
:103C7000FDF75AFD204610210022FDF755FD204694
:103C80000821FDF743FD012806D131241420FDF75A
:103C900021FC204610BD00BF20460421FDF736FD63
:103CA000012805D132241420FDF714FC204610BD54
:103CB00020460221FDF72AFD012805D133241420D6
:103CC000FDF708FC204610BD20460121FDF71EFD32
:103CD000012805D141241420FDF7FCFB204610BD2E
:103CE000204680210022FDF71FFD204640210122B1
:103CF000FDF71AFD204620210022FDF715FD204684
:103D000010210022FDF710FD20460821FDF7FEFCE2
:103D1000012805D134241420FDF7DCFB204610BD1A
:103D200020460421FDF7F2FC012805D1352414209A
:103D3000FDF7D0FB204610BD20460221FDF7E6FC32
:103D4000012805D136241420FDF7C4FB204610BD00
:103D500020460121FDF7DAFC012805D14224142078
:103D6000FDF7B8FB204610BD204680210022FDF75C
:103D7000DBFC204640210022FDF7D6FC2046202116
:103D80000122FDF7D1FC204610210022FDF7CCFCDA
:103D900020460821FDF7BAFC012805D1372414205C
:103DA000FDF798FB204610BD20460421FDF7AEFC30
:103DB000012805D138241420FDF78CFB204610BDC6
:103DC00020460221FDF7A2FC012805D13924142048
:103DD000FDF780FB204610BD20460121FDF796FC33
:103DE000012805D143241420FDF774FB204610BDA3
:103DF000204680210022FDF797FC2046402100222A
:103E0000FDF792FC204620210022FDF78DFC204684
:103E100010210122FDF788FC20460821FDF776FCE1
:103E2000012805D12A241420FDF754FB204610BD9B
:103E300020460421FDF76AFC012805D13024142016
:103E4000FDF748FB204610BD20460221FDF75EFC31
:103E5000012805D123241420FDF73CFB204610BD8A
:103E600020460121FDF752FC01281CBF002010BD97
:103E700044241420FDF72EFB204610BD98B0FDF71A
:103E80000DFF00240120CDE90644CDE90444019052
:103E900005904FF4E0104FF4803102250A9001A8FC
:103EA0001794CDE91544CDE90214CDE90851FEF788
:103EB0008FF928B1EFF3108072B600BFFEE700BFA4
:103EC0000F20CDE90B054FF48060CDE90E040BA85F
:103ED00002210D94FEF776F820B1EFF3108072B650
:103EE000FEE700BF4FF400404FF0020A169014A8FE
:103EF000CDF850A0FDF7E4FF20B1EFF3108072B6CB
:103F0000FEE700BF002441F21800CDE90344CDE9EB
:103F10000144C4F20200016840F6000B41F01001B8
:103F200001600168C4F2010B01F010010B910B99C3
:103F300001680BF5006941F0200101600168002271
:103F400001F020010B910B9901684FF4005541F0ED
:103F500004010160016801F004010B910B990168F3
:103F600041F00801016000684FF4005100F00800C2
:103F70000B900B984846FDF7D7FB01AE0195012544
:103F800048463146CDE90254CDF810A0FDF7B6FA07
:103F900058464FF40F6100224FF40F68FDF7C4FB41
:103FA0000BF5806738464FF4E4410022FDF7BCFB77
:103FB0000F2001A981E8110458463146FDF79EFA09
:103FC0004FF48060CDE90104584631460394FDF773
:103FD00095FA58463146CDE90185CDE9034AFDF70A
:103FE0008DFA38463146CDE901540395FDF786FA3E
:103FF0004FF4E440CDE9010538463146CDE9034AA6
:10400000FDF77CFA40F29006C2F200060BF5E05193
:10401000304640F82C1F4FF4602105730475C161D0
:10402000C0E901440561FCF7D5FF28B1EFF310802A
:1040300072B600BFFEE700BF0920CDE9010506F119
:104040002C0001A90394FCF721FF28B1EFF31080A5
:1040500072B600BFFEE700BF40F2EC40ABF5344162
:10406000C2F2000041F6802200244FF48043C0F2E7
:10407000060280E81600C0E90343C0E90544C0E930
:104080000744FDF75DFB28B1EFF3108072B600BF67
:10409000FEE700BF40F240500BF51051C2F20000A5
:1040A0004FF6FF731794CDE91544CDE912440794F8
:1040B000472280E81600C0E90334C0E90544FEF752
:1040C00003FB28B1EFF3108072B600BFFEE700BF1C
:1040D0004FF48050149040F24050C2F2000014A9F6
:1040E000FEF7D2FB20B1EFF3108072B6FEE700BFFF
:1040F00040F24050C2F20000FEF7C4FD20B1EFF3E1
:10410000108072B6FEE700BF40F24050C2F20000DD
:1041100012A9FEF799FA28B1EFF3108072B600BF2A
:10412000FEE700BF60200B9040F240500024C2F236
:1041300000000BA90822CDE90C44CDE90E44CDE9DD
:104140001044FEF79DFC18B1EFF3108072B6FEE745
:104150004FF40050069040F24050C2F2000001A916
:104160000594CDE90344CDE901440894FEF746FAED
:1041700020B1EFF3108072B6FEE700BF40F240506E
:10418000C2F20000FEF750FC40F288500021ABF56F
:104190008032C2F200008F2342F20F770E91CDE9F8
:1041A0000C11CDE91411CDE90611CDE90411C0E9D6
:1041B0000023C0E9021701618161FEF785FA18B199
:1041C000EFF3108072B6FEE74FF480500B9040F290
:1041D0008850C2F200000BA9FEF756FB20B1EFF3A6
:1041E000108072B6FEE700BF40F28850C2F20000B5
:1041F000FEF748FD20B1EFF3108072B6FEE700BF76
:1042000040F28850C2F2000014A9FEF71DFA18B15E
:10421000EFF3108072B6FEE7602040F288560190FE
:104220000020C2F20006CDE90200059001A9304647
:104230000822FEF725FC18B1EFF3108072B6FEE7F6
:104240003046FEF7F1FB58464FF400610022FDF7BF
:104250006BFA3068FA21C16340F24050C2F20000AC
:10426000FEF7DEFA30460821FEF78CFDFFF75CFA18
:10427000012817D10020FFF741FA00200021FFF7A5
:104280004BFA40F210010CA0C2F200010122FFF72C
:1042900067FCFFF781FCFFF75DF83220FDF71AF9A4
:1042A000F9E700BF48464FF40051FDF735FAC82042
:1042B000FDF710F9F6E700BF4F4C4544204F4B0087
:1042C0005FEA400C08BF91F0000F4FEA8C234FEAE1
:1042D000C12243EA51514FEA1C5018BF00F5F0408B
:1042E0004FEA300018BF41F000415FEA6C5C00F01B
:1042F0002980BCF1FF3F08BF40F080407047130C9D
:1043000006BF12044FF0100C4FF0000C130E04BF48
:1043100012020CF1080C130F04BF12010CF1040C73
:10432000930F04BF92000CF1020CD30F04BF520094
:104330000CF1010C11464FF00002A0F11F00A0EBA0
:104340000C00704711F0004F08BF704731F000417A
:104350003FF4D5AF0B0C06BF09044FF0100C4FF023
:10436000000C0B0E04BF09020CF1080C0B0F04BF6C
:1043700009010CF1040C8B0F04BF89000CF1020C35
:10438000CB0F04BF49000CF1010CCCF1200322FA41
:1043900003F341EA030102FA0CF2A0EB0C0000F176
:1043A0000100704723F07F4720F07F4C80EA030034
:1043B00000F00040ACEB070303F57C5303F1FF036F
:1043C0002DE9804909B44FEA144324EA03484FEA2F
:1043D000154B25EA0B4E0FF2042606EB13273E7809
:1043E00003FB0667C7F5000707FB06F64FEAD6464C
:1043F00006F102064FEA543707FB066CCCF1005C6D
:104400004FEA1C472CEA074C0CFB06F507FB06F4A9
:1044100004EB15464FEA961649085FEA320234BFAC
:1044200000204FF000404FEAD13706FB07FC4FEA6F
:104430001C4C0CFB0BF7D21B03FB0CF761EB0701C9
:104440000CFB0EF7B0EB074072EB17420CFB08F7C2
:1044500034BFA2EB0742B2EB074261EB17414FEAD0
:104460000C444FEA910706FB07FC4FEA1C4C0CFB7F
:104470000BF7B0EBC74072EB573203FB0CF734BFBE
:10448000A2EBC742B2EBC74261EB57310CFB0EF710
:10449000B0EBC70072EB57720CFB08F734BFA2EB0E
:1044A000C702B2EBC70261EB57714FEA816141EA83
:1044B00092114FEA826242EA90124FEA806004EB66
:1044C000CC04039F4FEAD13706FB07FC4FEA1C4C94
:1044D0000CFB0BF7D21B03FB0CF761EB07010CFB8A
:1044E0000EF7B0EB074072EB17420CFB08F734BF36
:1044F000A2EB0742B2EB074261EB17414FEA8C5542
:1045000004EB9C244FEA910706FB07FC4FEA1C4C86
:104510000CFB0BF7B0EBC74072EB573203FB0CF709
:1045200034BFA2EBC742B2EBC74261EB57310CFB81
:104530000EF7B0EBC70072EB57720CFB08F734BFF5
:10454000A2EBC702B2EBC70261EB57714FEA816180
:1045500041EA92114FEA826242EA90124FEA806089
:1045600015EB4C2544F100044FEAD13706FB07FC5C
:104570004FEA1C4C0CFB0BF7D21B03FB0CF761EB57
:1045800007010CFB0EF7B0EB074072EB17420CFB78
:1045900008F734BFA2EB0742B2EB074261EB1741C9
:1045A0004FEA813141EA92414FEA823242EA904237
:1045B0004FEA80304FEA0C7615EB1C1544F10004ED
:1045C00048EA03434EEA0B484FF0000EB2EB080CEA
:1045D00071EB030724BF624639464EEB0E0E4FF0D7
:1045E000000B0018524149414BEB0B0BB2EB080C8E
:1045F00071EB03077BF1000B24BF624639464EEB9B
:104600000E0E4FF0000B0018524149414BEB0B0BC3
:10461000B2EB080C71EB03077BF1000B24BF624681
:1046200039464EEB0E0E51EA020718BF46F001065E
:1046300016EB0E7655F1000254F1000103D5BDE8EA
:104640008901BDE80088BDE88901BDE80048B619C8
:10465000524141EB0101A3F10103704780807F7E4D
:104660007D7C7B7A797877767675747372717170E8
:104670006F6E6E6D6C6C6B6A6A696868676666659A
:104680006464636362616160605F5F5E5E5D5D5C28
:104690005C5B5B5A5A595958585757565655555599
:1046A0005454535352525251515050504F4F4F4EF9
:1046B0004E4D4D4D4C4C4C4B4B4B4A4A4A49494947
:1046C0004848484747474746464645454544444489
:1046D0004443434343424242424141419C46002BB2
:1046E00030D477002BD04FEA37071CB503B44FF016
:1046F00010004FF01001BAF1000F06D0BCF1000F0E
:10470000DCBF40F0080040F008014FF000000FBC93
:10471000BDE810400BF1010BBBF1010F08BF5FEAD0
:10472000170722BF12F1010211F101014FF0004100
:1047300043F1000300F0004043EA00007047F9D362
:104740005708D0E746EA06464FEA164613F1400FEF
:104750001FDD13F1200FDFBF16430A46002120336F
:104760005B42BED0C3F1200746EA06464FEA164632
:1047700002FA07F746EA070622FA03F2C3F1200716
:1047800001FA07F742EA070221FA03F14FF00003AA
:10479000A7E746EA020646EA06464FEA164646EA12
:1047A0000106BCBF46EA0646360C4FF000034FF048
:1047B00000024FF0000194E72DE9804C70B49A4656
:1047C000934691E8380007C831EA400C48BF34EA04
:1047D000430C03D5FFF7E6FDFFF780FFF0BCBDE813
:1047E000008C2DE9804C70B49A46934691E83800CD
:1047F00007C810F0804F08BF13F0804F03D100F0BE
:1048000005F8FFF76BFFF0BCBDE8008C20F07F4798
:1048100023F07F4C80EA030000F0004007EB0C031C
:10482000A3F57C53A3F1FE0392F0000F00F0B380D8
:1048300095F0000F00F077802DE901494FEA114013
:1048400021EA00484FEA144624EA064700FB06FC2A
:1048500008FB06F607FB08F818EB06484CEB164C6D
:1048600000FB07F718EB07484CEB17404FEA124BD9
:1048700022EA0B4E4FEA154625EA06470BFB06FCDB
:104880000EFB06F607FB0EFE1EEB064E4CEB164C1F
:104890000BFB07F71EEB074E4CEB174B18EB0B0807
:1048A00040F1000018EB0E0B58EB000840F100003F
:1048B0008F1A4FF000014FF000063CBFC943661B42
:1048C00014BFB5EB040C00213CBFC943F61B4FEAF3
:1048D000174427EA04454FEA1C472CEA074C04FB1F
:1048E000076205FB07F70CFB05F616EB074642EBE4
:1048F000174204FB0CFC16EB0C4642EB1C421BEB74
:10490000060658EB020241414EEA8E0E46EA9E062A
:1049100001D5BDE80189B619524141EB0101A3F16E
:104920000103BDE801894FEA144524EA05464FEA30
:10493000114721EA074C05FB07F406FB07F70CFBC0
:1049400006F111EB074144EB174405FB0CFC11EB9E
:104950000C4144EB1C444FEA124722EA074C05FB8A
:1049600007F206FB07F70CFB06F616EB074642EBD1
:10497000174205FB0CFC16EB0C4642EB1C456A1873
:1049800054F1000148BF7047B619524141EB010193
:10499000A3F10103704795F0000F37D04FEA1142A1
:1049A00021EA02464FEA144724EA074C02FB07F1CA
:1049B00006FB07F70CFB06F414EB074441EB174129
:1049C00002FB0CFC14EB0C4441EB1C414FEA154775
:1049D00025EA074C02FB07F506FB07F70CFB06F67A
:1049E00016EB074645EB174502FB0CFC16EB0C4695
:1049F00045EB1C42121951F1000148BF7047B6192E
:104A0000524141EB0101A3F1010370474FEA144504
:104A100024EA05464FEA114721EA074C05FB07F156
:104A200006FB07F70CFB06F212EB074241EB1741BE
:104A300005FB0CFC12EB0C4251EB1C414FF0000645
:104A400048BF7047921841EB0101A3F10103704781
:104A5000490050EAC12018BF04204A0D18BF40F099
:104A6000010040F2FF72B2EB515F08BF40F002005C
:104A7000012808BF0520704730380A2801D20120DC
:104A8000704700207047000010B500290AD0087850
:104A9000002807D005487844FBF782FC002801D0A5
:104AA000002010BD0248784410BD0000261E000002
:104AB0001E1E000021F0004201F00043A2F16052EE
:104AC000B2F5801F28BFD2F17F6C0BD95FEA001CC2
:104AD00043EAC20242EB507018BF704728BF20F073
:104AE00001007047B2F5801FBCBF184670474FEAFF
:104AF000410C1CF5001F02D2084600F08EBB70B5B9
:104B000000F050FA00000089FFF7F6BF4FF00040B8
:104B1000A0F58000704700002DE9C04130B4DFF8F7
:104B2000A8C23CEA111418BF3CEA131400F0F0804C
:104B30001CEA111481EA030544EAD57418BF1CEA83
:104B4000131500F0CB80A4EB050404F17F7404F589
:104B500000344FF0004545EAC12145EAC32341EA4C
:104B6000505143EA52534FEAC0204FEAC2229942C1
:104B700008BF904200F0A0804FEA13650FF248167C
:104B8000765D4FEA134506FB05F7C7F1807706FB14
:104B900007F74FEAD737A7FB03687642A7FB06CE95
:104BA000C8F5803838BFA8F1010807FB08E6A6FB66
:104BB000028C4FF0000EE6FB03CED8F100086FEA3E
:104BC0000C0C5CF1000C6FEA0E0E4EF1004EA6FBD1
:104BD0000C584FF00007E6FB0E87A1FB08C6A0FBB0
:104BE00007CE16EB0E064FF0000545F10005E1FB80
:104BF000076515F1E04E7EBFA4F580345FEA4606F6
:104C00006D4116F1800745F100054FEA172747EA85
:104C100005674FEA15254FEA0666A6F1DE46B6F1AE
:104C2000805F20D9384605EBC47124F0010C01EBFC
:104C30000C11BCF1FE6F02D8F0BCBDE8008124422B
:104C40005CBF01F5801E9EEAC47F02D4F0BCBDE8C3
:104C50000081244200F13980A1F1C041F0BCBDE8DF
:104C6000004100F0EDB94FEAD02040EA41504FEA50
:104C7000D1214FEAD22242EA43524FEAD323A7FB83
:104C8000028607FB036605FB02661EEA0E0F58BF8D
:104C9000A6EB0056B6EB00564FEA520E4EEAC37E24
:104CA00018EB0E0E56EB530EBCD518EB02085E4106
:104CB0007F1C55F10005B5E74FF480154FF0000754
:104CC0004FF000064FF00008ACE701F1C04101F0E1
:104CD00000414FF00000F0BCBDE800810CEA131564
:104CE00011EA0C1F00D00CE013EA0C1F00F0258025
:104CF0004FF0000081EA030101F00041F0BCBDE883
:104D00000081F0BCBDE8004181EA030100F098B9E0
:104D1000F0BCBDE8004170B500F044F9097EFC3EEE
:104D200000F007B84FF0000081EA030101F00041F4
:104D3000704781EA030100F083B9F0BCBDE800418F
:104D400022494FF000007047FFFDFBF9F7F5F4F240
:104D5000F0EEEDEBE9E8E6E4E3E1E0DEDDDBDAD816
:104D6000D7D5D4D3D1D0CFCDCCCBCAC8C7C6C5C474
:104D7000C2C1C0BFBEBDBCBBBAB9B8B7B6B5B4B38B
:104D8000B2B1B0AFAEADACABAAA9A8A8A7A6A5A476
:104D9000A3A3A2A1A09F9F9E9D9C9C9B9A9999983A
:104DA0009797969595949393929191908F8F8E8EDD
:104DB0008D8C8C8B8B8A898988888787868585846A
:104DC00084838382828181800000FF070000F87F56
:104DD0004FEA1153A3F58063D3F11E03A8BFD3F1AB
:104DE000200C08DB4FF0004242EAC12252EA505246
:104DF00032FA03F0704709420BD4102BC4BF0020D5
:104E0000704703F5787CBCF1FF3F05D04FF0FF30D1
:104E100070474FF00000704770B500F0C3F800BF56
:104E20004992248000207047F0E7B0FA80F310FA2E
:104E300003F10AD0C3F11D0303F580634FEA035267
:104E40004FEA415002EBD12170474FF0000070470C
:104E500070B5DFF848C11CEA111E1EBF1CEA13150D
:104E60009EEA0C0F95EA0C0F00F06F8081EA0304B4
:104E70004EEAD47EAE4421EA4C1123EA4C1341F4AD
:104E8000801143F48013AEF17F7EA1FB024CA0FBA6
:104E90000365361955EB0C05A1FB034C4CF10003DF
:104EA000A0FB021C16EB0C06654153F100030942FE
:104EB00018BF46F0010613F4007F0BD14FEA03310F
:104EC0004FEA053041EA155140EA165034036FF0BD
:104ED00003020AE04FEAC3214FEAC52041EA5551D7
:104EE00040EA5650F4026FF0020202EB2E4201EB50
:104EF000025585EACE710AD05FEA440C18BF24F04F
:104F0000004450F1000041F1000120EAD47040F269
:104F1000FE7C624500D270BDA84214BF4FF08044B1
:104F20004FF04044002E08BF0024BEF1806FA8BFA0
:104F3000A1F1C041BDE8704080F2828001F1C04122
:104F400001F000414FF0000070470CEA13159EEA93
:104F50000C0F18BF95EA0C0F06D081EA030E4FF034
:104F600000000EF0004170BD00F01CF88900013E09
:104F700000F007B800F009B84FEA430C5FEA5C5C48
:104F800008D081EA030100F05BB84FEA410C5FEA08
:104F90005C5CF6D102494FF0000070470000FF074B
:104FA0000000F87F0EF1020E2EF0030E5EF8046B87
:104FB000364205D4012A43EB030515F5001F12D82C
:104FC000012841EB010C1CF5001F0CD80ED14FEA53
:104FD000D17C0CEB4C0C0CF1020C15F5001F08BF3A
:104FE0004CEBD37C04E04FF0080C01E04FEAD37C9B
:104FF0000CEB4C0526FA05F606F00706B6F1040C94
:1050000006D20EEB860CBDE870404CF0010C6047F8
:10501000DFE80CF0090B02024FF00041A1F500217E
:105020004FF0000070BD19461046012851EB0104F5
:1050300018BFD4F5001484BF002001F0004170BDFA
:105040000808A0F500114FEA3101704743004FEA0C
:10505000D30C4FEA3C0C43401FBF40070CF160519A
:1050600013F0FE4F70471CF0006F03D10CF00041AD
:10507000002070470CF0004343EA507040EACC0037
:1050800010B500F084F800BF000000924FEA000164
:10509000FFF7D6BF4FF00041A1F500214FF000000F
:1050A0007047000090EA010F48BF81F0004100F115
:1050B000C080421A3CBF801A89184FEAD052A2EB36
:1050C000D1534FF07F4C1CEA410F18BF9CEA026F8E
:1050D00000F03B804FF0004C4CEA00204CEA0121EC
:1050E00021FA03FC10EB0C0C1ED202F1FF325FEA36
:1050F0001C2040EBC25038BF70471CF07F0F4FEAB6
:10510000400C18BFBCF17F4F38BF7047C3F120037C
:10511000994008BF20F00100BCF17F4F38BF7047B5
:10512000A0F1C04000F079B84FEA3C00000A40EB23
:10513000C25028BF1CF0FF0F4FEA400CE6D018BF4A
:10514000BCF17F4F38BF7047EAE79CEA026F05D099
:1051500010EA5C0F08BF00F00040704710B500F087
:1051600016F800BF64FBBE3EB0FA80F310FA03F2FB
:10517000C3F19D030AD0D90501EB1220530638BFB5
:10518000704700F1010008BF20F0010070470EF1E8
:10519000020E2EF0030E5EF8044B244204D44FEAB4
:1051A0004102B2F17F4F11D84FEA4003B3F17F4F74
:1051B0000CD80ED14FEAD07C0CEB4C0C0CF1020C4D
:1051C000B2F17F4F08BF4CEBD17C04E04FF0080CEC
:1051D00001E04FEAD17C0CEB4C0324FA03F404F019
:1051E0000704B4F1040C06D20EEB840CBDE81040A9
:1051F0004CF0010C6047DFE80CF0070802024FF0AA
:105200000040A0F5800010BD0846420018BFD2F152
:10521000807288BF00F0004010BDFF2141EAD050ED
:10522000C005704790EA010F48BF81F000413FF58B
:1052300040AF421A04D882F00042A0EB02001144B1
:105240004FEAD052A2EBD1534FF07F4C1CEA410FF2
:1052500018BF9CEA026F4AD04FF0004C4CEA002085
:105260004CEA012121FA03FCB0EB0C0C0FD412F034
:10527000FE0F36D05FEA4C001DD5001240EBC25045
:1052800038BF70471CF03F0F18BF70470BE05FEA54
:105290001C20A2F1010240EBC25038BF70471CF045
:1052A0007F0F18BF7047C3F12003994014BF401E01
:1052B00020F0010070474FEA1223800808BF7047B2
:1052C000B0FA80FCA2EB0C02CCF1280C60FA0CF0D6
:1052D00093EA122F04BF00EBC25070474FEAC3702D
:1052E0007047130A5FEADC1008BF7047F6E79CEAD4
:1052F000026F04D010EA5C0F08BF0020704710B5A1
:10530000FFF745FF40DFF63E81F000407047FBF7B6
:1053100062B9000002400000000000A00000000090
:1053200005400000000000C8000000000C40000024
:105330000000409C00000000194000000020BCBE9E
:105340000000000034400000BFC91B8E00000004B4
:10535000B5400000504BCFD06607E2CF01000000FF
:105360006C4100003E8251AADFEEA734010000002C
:10537000D9420000DCB5A0E23A301F97FFFFFFFFE3
:10538000B4450000FD25A0C8E9A3C14FFFFFFFFF02
:10539000FF3F00000000008000000000FF3F000011
:1053A000000000800000000000000000000000007D
:1053B00001020304060708090000000001020304BB
:1053C00000000000000000000000000000000000DD
:1053D00000000000000000000000000000000000CD
:1053E000000000000000000C000C000C000C000C81
:1053F000000C000C000C000C000C000C0000000C59
:10540000000C0000000000000000001B001B001B3F
:10541000001B001B00000000000000000000000056
:1054200000000000000000000000000000008019E3
:10543000801980198019C07FC07F80190033C07F18
:10544000C07F003300330033003300000000000051
:105450000000001E003F807580650074003C001E47
:1054600000078005806580658075003F001E000490
:10547000000400000000007000D840D8C0D880D9D7
:1054800000730006000C801BC036C066C046C00614
:1054900080030000000000000000001E003F0033F9
:1054A00000330033001E000CC03CC0668063806186
:1054B0008063C03E801C0000000000000000000C63
:1054C000000C000C000C000C0000000000000000AC
:1054D00000000000000000000000000000000000CC
:1054E000800000010003000600060004000C000C10
:1054F000000C000C000C000C000400060006000369
:1055000000018000002000100018000C000C0004B6
:105510000006000600060006000600060004000C57
:10552000000C0018001000200000000C002D003FAF
:10553000001E00330000000000000000000000001A
:10554000000000000000000000000000000000005B
:105550000000000C000C000C000CC0FFC0FF000C91
:10556000000C000C000C0000000000000000000017
:10557000000000000000000000000000000000002B
:1055800000000000000000000000000C000C0004FF
:1055900000040008000000000000000000000000FF
:1055A000000000000000001E001E000000000000BF
:1055B00000000000000000000000000000000000EB
:1055C00000000000000000000000000000000000DB
:1055D0000000000C000C00000000000000000003B0
:1055E000000300030006000600060006000C000C85
:1055F000000C000C0018001800180000000000004B
:105600000000001E003F0033806180618061806D7A
:10561000806D8061806180610033003F001E00006A
:105620000000000000000006000E001E00360026EC
:10563000000600060006000600060006000600063A
:1056400000060000000000000000001E003F807304
:1056500080618061800100030006000C00180030AA
:105660000060807F807F0000000000000000001CC0
:10567000003E006300630003000E000E0003800183
:10568000800180618073003F001E00000000000068
:1056900000000006000E000E001E001E0016003660
:1056A00000360066807F807F00060006000600004E
:1056B000000000000000007F007F006000600060CC
:1056C000006E007F80638001800180618073003FF5
:1056D000001E0000000000000000001E003F80339C
:1056E00080610060006E007F8073806180618061F6
:1056F0008033003F001E0000000000000000807F9B
:10570000807F80010003000300060006000C000CEF
:10571000000C00080018001800180000000000002D
:105720000000001E003F8063806180610021001E38
:10573000003F8061806180618061003F001E000049
:10574000000000000000001E003F007380618061C7
:1057500080618073803F801D800180610073003F05
:10576000001E00000000000000000000000000001B
:105770000000000C000C0000000000000000000011
:105780000000000C000C0000000000000000000001
:105790000000000000000000000C000C00000000F1
:1057A000000000000000000C000C000400040008D1
:1057B000000000000000000080008003000E0038A0
:1057C00000600038000E8003800000000000000030
:1057D0000000000000000000000000000000807FCA
:1057E000807F00000000807F807F000000000000BC
:1057F00000000000000000000000000000000000A9
:1058000000400070001C000780010007001C0070B1
:105810000040000000000000000000000000001F29
:10582000803FC071C060C000C00180030007000E4F
:10583000000C000C0000000C000C00000000000038
:105840000000001E003F803180718063806F806D9A
:10585000806D806F806700600032003E001C000099
:10586000000000000000000E000E001B001B001BCB
:10587000001B80318031803F803F8031C060C0603C
:10588000C0600000000000000000007C007E00639B
:10589000006300630063007E007E006380618061BE
:1058A0008063007F007E0000000000000000001EFA
:1058B000003F803180610060006000600060006037
:1058C000006080618031003F001E00000000000089
:1058D0000000007C007F00638063806180618061E4
:1058E00080618061806100630063007E007C000055
:1058F000000000000000807F807F0060006000608A
:105900000060007F007F0060006000600060807FBA
:10591000807F0000000000000000807F807F00602A
:10592000006000600060007F007F00600060006039
:105930000060006000600000000000000000001E29
:10594000003F8031806100600060006080638063A0
:10595000806180618031803F001E000000000000F7
:105960000000806180618061806180618061807FF2
:10597000807F8061806180618061806180610000E2
:10598000000000000000003F003F000C000C000C75
:10599000000C000C000C000C000C000C000C003F74
:1059A000003F000000000000000080018001800135
:1059B000800180018001800180018001806180611F
:1059C0008073003F001E0000000000000000C06067
:1059D0008061006300660066006C0078007C0066F1
:1059E0000066006380618061C0600000000000000C
:1059F0000000006000600060006000600060006007
:105A000000600060006000600060807F807F0000B8
:105A1000000000000000C071C071C07BC07AC06A85
:105A2000C06AC06EC064C060C060C060C060C0605A
:105A3000C06000000000000000008071807180796B
:105A400080798079806D806D806D806580678067EA
:105A50008067806380630000000000000000001E7B
:105A6000003F00338061806180618061806180617E
:105A7000806180610033003F001E000000000000D4
:105A80000000007E007F80638061806180618063B0
:105A9000007F007E00600060006000600060000029
:105AA000000000000000001E003F003380618061A4
:105AB0008061806180618061806580670033803FA4
:105AC000401E0000000000000000007E007F806398
:105AD000806180618063007F007E006600630063F8
